{
  "contractName": "Counter",
  "abi": [
    {
      "inputs": [],
      "name": "increment",
      "outputs": [],
      "stateMutability": "nonpayable",
      "type": "function"
    },
    {
      "inputs": [],
      "name": "getCounter",
      "outputs": [
        {
          "internalType": "uint256",
          "name": "",
          "type": "uint256"
        }
      ],
      "stateMutability": "view",
      "type": "function"
    }
  ],
  "bytecode": "0x608060405234801561001057600080fd5b50610172806100206000396000f3fe608060405234801561001057600080fd5b50600436106100365760003560e01c80638ada066e1461003b578063d09de08a14610059575b600080fd5b610043610063565b6040516100509190610092565b60405180910390f35b61006161006c565b005b60008054905090565b600160005461007b91906100ad565b600081905550565b61008c81610103565b82525050565b60006020820190506100a76000830184610083565b92915050565b60006100b882610103565b91506100c383610103565b9250827fffffffffffffffffffffffffffffffffffffffffffffffffffffffffffffffff038211156100f8576100f761010d565b5b828201905092915050565b6000819050919050565b7f4e487b7100000000000000000000000000000000000000000000000000000000600052601160045260246000fdfea2646970667358221220db3ea65f21f9a477a44d84d8ddd629b22c5bdd858affa57627306058ce4ee32b64736f6c63430008000033",
  "immutableReferences": {},
  "source": "// SPDX-License-Identifier: MIT\npragma solidity ^0.8.0;\n\ncontract Counter {\n  uint count;\n\n  function increment () public {\n    count = count + 1;\n  }\n\n  function getCounter () public view returns (uint) {\n    return count;\n  }\n}",
  "sourcePath": "/Users/amanda/Documents/blockchain/ipfs-erc721/smart-contracts/contracts/Counter.sol",
  "compiler": {
    "name": "solc",
    "version": "0.8.0+commit.c7dfd78e.Emscripten.clang"
  },
  "schemaVersion": "3.4.3",
  "updatedAt": "2021-10-04T15:25:53.467Z",
  "devdoc": {
    "kind": "dev",
    "methods": {},
    "version": 1
  },
  "userdoc": {
    "kind": "user",
    "methods": {},
    "version": 1
  }
}